:100000000C9434000C943E000C943E000C943E0082
:100010000C943E000C943E000C943E000C943E0068
:100020000C943E000C943E000C943E000C943E0058
:100030000C943E000C943E000C943E000C943E0048
:100040000C943E000C943E000C943E000C943E0038
:100050000C943E000C943E000C943E000C943E0028
:100060000C943E000C943E0011241FBECFEFD8E04C
:10007000DEBFCDBF0E9440000C945B000C940000DA
:10008000209A529881E021E099B1392F347092FD85
:1000900010C08823C9F33FEF80E792E031508040E1
:1000A0009040E1F700C0000085B1822785B980E06B
:0A00B000EBCF832FE9CFF894FFCFC8
:00000001FF
