:100000000C9434000C943E000C943E000C943E0082
:100010000C943E000C943E000C943E000C943E0068
:100020000C943E000C943E000C943E000C94400056
:100030000C943E000C943E000C943E000C943E0048
:100040000C943E000C943E000C943E000C943E0038
:100050000C943E000C943E000C943E000C943E0028
:100060000C943E000C943E0011241FBECFEFD8E04C
:10007000DEBFCDBF0E9452000C946A000C940000B9
:100080001F920F920FB60F9211248F939F9385B1F9
:1000900092E0892785B99F918F910F900FBE0F90A5
:1000A0001F901895219A809181008860809381002B
:1000B00083E89EE1909389008093880080916F008F
:1000C000826080936F0080918100856080938100C1
:0800D0007894FFCFF894FFCFF4
:00000001FF
