:100000000C9434000C943E000C943E000C943E0082
:100010000C943E000C943E000C943E000C943E0068
:100020000C943E000C943E000C943E000C943E0058
:100030000C943E000C943E000C943E000C943E0048
:100040000C943E000C943E000C943E000C943E0038
:100050000C943E000C943E000C943E000C943E0028
:100060000C943E000C943E0011241FBECFEFD8E04C
:10007000DEBFCDBF0E9440000C9479000C940000BC
:10008000209A219A229A249A5298549880E021E04A
:1000900031E04FEF50E792E0415050409040E1F79F
:1000A00000C0000049B199B19071542F547042FDC5
:1000B00002C031118F5F911102C02111815080FF68
:1000C00010C0289A81FF0FC0299A82FF0EC02A9A79
:1000D00083FF0DC02C9A813108F080E0292F352F45
:1000E000D8CF2898EFCF2998F0CF2A98F1CF2C9825
:0600F000F2CFF894FFCFEF
:00000001FF
