:100000000C9434000C943E000C943E000C943E0082
:100010000C943E000C943E000C943E000C943E0068
:100020000C943E000C943E000C943E000C943E0058
:100030000C943E000C943E000C943E000C943E0048
:100040000C943E000C943E000C943E000C943E0038
:100050000C943E000C943E000C943E000C943E0028
:100060000C943E000C943E0011241FBECFEFD8E04C
:10007000DEBFCDBF0E9440000C9481000C940000B4
:10008000209A219A229A249A5298539880E041E02B
:1000900021E03FEF50E792E0315050409040E1F7CF
:1000A00000C0000039B199B19870632F647032FDBF
:1000B00002C021118F5F21E030E0992311F030E080
:1000C00020E050E024233523232B09F0815080FFCA
:1000D00010C0289A81FF0FC0299A82FF0EC02A9A69
:1000E00083FF0DC02C9A813108F080E0492F262F24
:1000F000D0CF2898EFCF2998F0CF2A98F1CF2C981D
:06010000F2CFF894FFCFDE
:00000001FF
